:020000040800F2
:1000000000000320E10700082D0800082D08000863
:100010002D0800082D0800082D0800080000000029
:100020000000000000000000000000002D08000893
:100030002D080008000000002D080008A106000897
:100040002D0800082D0800082D0800082D080008BC
:100050002D0800082D0800082D0800082D080008AC
:100060002D0800082D0800082D0800082D0800089C
:100070002D0800082D0800082D0800082D0800088C
:100080002D0800082D0800082D0800082D0800087C
:100090002D0800082D0800082D080008B1060008EA
:1000A0002D0800082D0800082D0800082D0800085C
:1000B0002D0800082D0800082D0800082D0800084C
:1000C0002D0800082D0800082D0800082D0800083C
:1000D0002D0800082D0800082D0800082D0800082C
:1000E0002D0800082D0800082D0800082D0800081C
:1000F0002D0800082D0800082D0800082D0800080C
:100100002D0800082D0800082D0800082D080008FB
:100110002D0800082D0800082D0800082D080008EB
:100120002D0800082D0800082D0800082D080008DB
:100130002D0800082D0800082D0800082D080008CB
:100140002D0800082D0800082D0800082D080008BB
:100150002D0800082D0800082D0800082D080008AB
:100160002D0800082D0800082D0800082D0800089B
:100170002D0800082D0800082D08000800000000C8
:100180002D0800082D0800082D0800082D0800087B
:100190002D0800082D0800082D0800082D0800086B
:0C01A0002D0800082D0800082D0800089C
:1001AC0010B5054C237833B9044B13B10448AFF3A5
:1001BC0000800123237010BD1800002000000000F7
:1001CC007808000808B5034B1BB103490348AFF38B
:1001DC00008008BD000000001C000020780800080A
:1001EC002B4B19682B4B1B78DBB2012B16D0022B37
:1001FC0019D01BB9284B1A68284B1A60284B1B685E
:10020C00CB1A264A1268934223D3264B1B78052B14
:10021C0013D8DFE803F00D1F252B31371E4B5A681E
:10022C001E4B1A60EAE71C4B9A681C4B1A60E5E7F8
:10023C001D48426982F0010242615A1C1B4B83FB30
:10024C00020303EB43035800131A164A1370144BA2
:10025C00196070471448426982F080024261ECE7F1
:10026C001148426982F480424261E6E70E484269D5
:10027C0082F400424261E0E70D48426982F040029C
:10028C004261DAE70A48426982F080024261D4E7AF
:10029C00700000205E0000200C00002054000020A4
:1002AC00500000204C00002000040240ABAAAA2AF7
:1002BC00000C024010B42E4B1C68002311E02D4A98
:1002CC0050681CE02B4A906819E0002017E02A487F
:1002DC00426982F001024261284A42F8214001330E
:1002EC00DBB2052B40D81946254AD25CD2B2012A82
:1002FC00E5D0022AE6D0002AE7D11E4A10681F4A30
:10030C0052F82120A21A8242E9D3052BE4D801A28B
:10031C0052F823F0DB0200083903000845030008FB
:10032C00510300085D030008690300081248426984
:10033C0082F080024261CFE70F48426982F480422A
:10034C004261C9E70C48426982F400424261C3E74A
:10035C000C48426982F040024261BDE7094842699B
:10036C0082F080024261B7E75DF8044B704700BF32
:10037C007000002000000020000402403400002027
:10038C0058000020000C024008B500F097F800F06F
:10039C001BF900F05FF900F031F8064B00221A60EF
:1003AC0001E0FFF71DFF044B1B78002BF9D0FFF782
:1003BC0081FFF8E7540000206000002000B500F039
:1003CC000700C0F1070CBCF1040F28BF4FF0040C60
:1003DC00031D062B0FD9C31E4FF0FF3E0EFA0CF077
:1003EC0021EA000199400EFA03FE22EA0E0241EACC
:1003FC0002005DF804FB0023EEE70000294BD3F864
:10040C00002842F48052C3F80028D3F8082842F49C
:10041C008062C3F80828244A136B43F00E0313635D
:10042C00224B1A6842F001021A601A6842F48042A8
:10043C001A601A6842F080521A601A6842F480629C
:10044C001A601A6842F080621A601A6842F0805290
:10045C001A601A6842F080421A60154A116841F419
:10046C0080511160116841F480411160596821F488
:10047C00404121F09101596098680E4901439960FF
:10048C00D8680D490140D960536823F0C00353600C
:10049C00936843F4A0439360D36823F4A043D360E0
:1004AC00704700BF000002400038024000040240C8
:1004BC00000C024001410050FEBFFFAF404A1368E0
:1004CC0023F0F80343F080031360002393603C4B4C
:1004DC009B6813F00C0FFAD1394A136823F0807320
:1004EC001360374B1B6813F0007FFAD1344A136842
:1004FC0023F410231360324B1B6813F4003FFAD122
:10050C002F4B1A6822F480221A601A6842F4803247
:10051C001A602B4B1B6813F4003FFAD0284B1A6857
:10052C0022F480221A601A6842F400221A605A6877
:10053C0042F480325A605A6842F480025A605A6817
:10054C0022F03F0242F004025A605A686FF38E1296
:10055C0042F434525A605A6822F440325A601A6893
:10056C0042F080721A60164B1B6813F0007FFAD1B0
:10057C00134B9A6822F0030242F002029A609A68C6
:10058C0022F0F0029A609A6822F4E05242F4A052EF
:10059C009A609A6822F4604242F400429A609A6827
:1005AC0042F060529A609A6822F040429A60054A82
:1005BC00136823F00F0343F005031360704700BF6B
:1005CC0000380240003C024038B51E4A536C43F4DC
:1005DC00804353641C4BDA6822F0F002DA60DA686C
:1005EC0022F47062DA60DA6822F47042DA6003F5A1
:1005FC0080631A6842F0E0021A60DA6822F0E002C6
:10060C00DA609A6842F0E0029A60104DE8680022C5
:10061C001146C0F30220FFF7D1FE0001C0B20C4C12
:10062C0084F80A03E86800221146C0F30220FFF7A1
:10063C00C5FE0001C0B284F817034FF40003236019
:10064C0038BD00BF003802400038014000ED00E02A
:10065C0000E100E04FF0E0231A6922F001021A6178
:10066C001A6942F002021A611A6942F004021A6114
:10067C005A6902F07F4206490A435A619A6902F0AC
:10068C007F420A439A611A6942F001021A6170476B
:10069C001FBF0200024A136801331360704700BF8A
:1006AC00700000203F4B5B6913F0200F20D03D4AB7
:1006BC00536943F0200353613B4B1B683B4A126860
:1006CC009B1AC82B10D93A4A13780133DBB213703A
:1006DC001378DBB2022B02D9134600221A70344B6A
:1006EC001B78DBB2334A13702F4B1A682F4B1A60EE
:1006FC002C4B5B6913F0400F24D02A4A536943F00A
:10070C0040035361284B1B682B4A12689B1AC82B59
:10071C0014D92A4A13780133DBB213701378DBB285
:10072C00022B02D9134600221A70224B1B78002B85
:10073C002FD1224B1B78DBB2214A13701A4B1A684B
:10074C001D4B1A60174B5B6913F0800F20D0154AB4
:10075C00536943F080035361134B1B68194A1268A9
:10076C009B1AC82B10D9184A13780133DBB21370BB
:10077C001378DBB2052B02D9134600221A70124BE8
:10078C001B78DBB2114A1370074B1A680D4B1A60B9
:10079C0070470E4B1B78DBB2084A1278D2B20C4968
:1007AC00CA54CBE7003C0140700000206C000020D4
:1007BC0076000020600000206800002075000020FA
:1007CC005E00002064000020740000205F00002008
:1007DC0058000020DFF830D00C480D490D4A00239A
:1007EC0002E0D458C4500433C4188C42F9D30A4ADA
:1007FC000A4C002301E013600432A242FBD300F048
:10080C0011F8FFF7C1FD7047000003200000002025
:10081C00180000209808000818000020780000201C
:10082C00FEE7000070B50D4D0D4C641BA4100026A6
:10083C00A64209D10B4D0C4C00F018F8641BA41007
:10084C000026A64205D170BD55F8043B98470136E9
:10085C00EEE755F8043B98470136F2E7900800089C
:10086C00900800089008000894080008F8B500BF2C
:10087C00F8BC08BC9E467047F8B500BFF8BC08BC75
:04088C009E467047CD
:04089000D10100088A
:04089400AD010008AA
:10089800DC05000084030000C800000060090000B7
:0808A8001405000058020000D5
:04000005080007E107
:00000001FF
