:020000040800F2
:10000000000003203D03000889030008890300085D
:100010008903000889030008890300080000000024
:10002000000000000000000000000000890300083C
:100030008903000800000000890300088903000804
:100040008903000889030008890300088903000860
:100050008903000889030008890300088903000850
:100060008903000889030008890300088903000840
:100070008903000889030008890300088903000830
:100080008903000889030008890300088903000820
:100090008903000889030008890300088903000810
:1000A0008903000889030008890300088903000800
:1000B00089030008890300088903000889030008F0
:1000C00089030008890300088903000889030008E0
:1000D00089030008890300088903000889030008D0
:1000E00089030008890300088903000889030008C0
:1000F00089030008890300088903000889030008B0
:10010000890300088903000889030008890300089F
:10011000890300088903000889030008890300088F
:10012000890300088903000889030008890300087F
:10013000890300088903000889030008890300086F
:10014000890300088903000889030008890300085F
:10015000890300088903000889030008890300084F
:10016000890300088903000889030008890300083F
:1001700089030008890300088903000800000000C3
:10018000890300088903000889030008890300081F
:10019000890300088903000889030008890300080F
:0C01A00089030008890300088903000897
:1001AC0010B5054C237833B9044B13B10448AFF3A5
:1001BC0000800123237010BD00000020000000000F
:1001CC00D403000808B5034B1BB103490348AFF334
:1001DC00008008BD0000000004000020D4030008CB
:1001EC0008B500F06DF82FE0304B01221A70002397
:1001FC002F4A13702F498A6942F080028A6100E00D
:10020C0001332D4A9342FBDD2A4A936943F40003E0
:10021C0093611EE00023254A1370254A01211170B9
:10022C0024498A6942F001028A6100E00133224AC2
:10023C009342FBDD1F4A936943F4803393610DE0D5
:10024C001B4B1B78012B17D01C4B1B6913F0400F59
:10025C00CAD11A4B1B6913F0800FDBD1134B1B78DF
:10026C00012BEDD1154B1A6842F080721A609A6915
:10027C0042F480529A61E3E7104B9A6942F0805243
:10028C009A611B6913F4805FDED00A4A936943F4C8
:10029C0080439361002300E00133074A9342FBDD66
:1002AC00044A936943F080439361CDE71D0000201D
:1002BC001C000020000402401FA10700000802409F
:1002CC00164A136B43F00E031363154B1A6842F076
:1002DC0001021A601A6842F480421A601A6842F0ED
:1002EC0080521A605A6822F4C14222F001025A600C
:1002FC000C4A516821F48051516098680A490143B5
:10030C009960916841F080719160D868074901400B
:10031C00D960D36823F08073D360704700380240F3
:10032C00000402400008024001400010FEBFFFEF35
:10033C00DFF830D00C480D490D4A002302E0D458A8
:10034C00C4500433C4188C42F9D30A4A0A4C002313
:10035C0001E013600432A242FBD300F011F8FFF766
:10036C003FFF704700000320000000200000002029
:10037C00F40300080000002020000020FEE700002D
:10038C0070B50D4D0D4C641BA4100026A64209D16E
:10039C000B4D0C4C00F018F8641BA4100026A64260
:1003AC0005D170BD55F8043B98470136EEE755F87A
:1003BC00043B98470136F2E7EC030008EC03000815
:1003CC00EC030008F0030008F8B500BFF8BC08BC4B
:1003DC009E467047F8B500BFF8BC08BC9E467047F7
:0403EC00D101000833
:0403F000AD01000853
:040000050800033DAF
:00000001FF
