:020000040800F2
:10000000000003204D03000899030008990300082D
:1000100099030008990300089903000800000000F4
:10002000000000000000000000000000990300082C
:1000300099030008000000009903000899030008D4
:100040009903000899030008990300089903000820
:100050009903000899030008990300089903000810
:100060009903000899030008990300089903000800
:1000700099030008990300089903000899030008F0
:1000800099030008990300089903000899030008E0
:1000900099030008990300089903000899030008D0
:1000A00099030008990300089903000899030008C0
:1000B00099030008990300089903000899030008B0
:1000C00099030008990300089903000899030008A0
:1000D0009903000899030008990300089903000890
:1000E0009903000899030008990300089903000880
:1000F0009903000899030008990300089903000870
:10010000990300089903000899030008990300085F
:10011000990300089903000899030008990300084F
:10012000990300089903000899030008990300083F
:10013000990300089903000899030008990300082F
:10014000990300089903000899030008990300081F
:10015000990300089903000899030008990300080F
:1001600099030008990300089903000899030008FF
:100170009903000899030008990300080000000093
:1001800099030008990300089903000899030008DF
:1001900099030008990300089903000899030008CF
:0C01A00099030008990300089903000867
:1001AC0010B5054C237833B9044B13B10448AFF3A5
:1001BC0000800123237010BD00000020000000000F
:1001CC00E403000808B5034B1BB103490348AFF324
:1001DC00008008BD0000000004000020E4030008BB
:1001EC0008B500F071F82FE0324B01221A70002391
:1001FC00314A137031498A6942F080028A6100E009
:10020C0001332F4A9342FBDD2C4A936943F40003DC
:10021C0093611EE00023274A1370274A01211170B5
:10022C0026498A6942F001028A6100E00133244ABE
:10023C009342FBDD214A936943F4803393610DE0D3
:10024C001D4B1B78012B17D01E4B1B6913F0400F55
:10025C00CAD11C4B1B6913F0800FDBD1154B1B78DB
:10026C00012BEDD1174B1A6842F080721A609A6913
:10027C0042F480529A61E3E7124B9A6942F0805241
:10028C009A611A6842F040721A601B6913F4805F1D
:10029C00DAD00A4A936943F480439361002300E067
:1002AC000133074A9342FBDD044A936943F08043D0
:1002BC009361C9E71D0000201C00002000040240CF
:1002CC001FA1070000080240184A136B43F00E03ED
:1002DC001363174B1A6842F001021A601A6842F451
:1002EC0080421A601A6842F080521A60114A1168F2
:1002FC0041F080711160596821F4C14121F0010174
:10030C005960516821F48051516098680A49014341
:10031C009960916841F080719160D86807490140FB
:10032C00D960D36823F08073D360704700380240E3
:10033C00000402400008024001400010FEBFFFEF25
:10034C00DFF830D00C480D490D4A002302E0D45898
:10035C00C4500433C4188C42F9D30A4A0A4C002303
:10036C0001E013600432A242FBD300F011F8FFF756
:10037C0037FF704700000320000000200000002021
:10038C00040400080000002020000020FEE700000C
:10039C0070B50D4D0D4C641BA4100026A64209D15E
:1003AC000B4D0C4C00F018F8641BA4100026A64250
:1003BC0005D170BD55F8043B98470136EEE755F86A
:1003CC00043B98470136F2E7FC030008FC030008E5
:1003DC00FC03000800040008F8B500BFF8BC08BC1A
:1003EC009E467047F8B500BFF8BC08BC9E467047E7
:0403FC00D101000823
:04040000AD01000842
:040000050800034D9F
:00000001FF
