:020000040800F2
:100000000000032045030008910300089103000845
:10001000910300089103000891030008000000000C
:100020000000000000000000000000009103000834
:1000300091030008000000009103000891030008EC
:100040009103000891030008910300089103000840
:100050009103000891030008910300089103000830
:100060009103000891030008910300089103000820
:100070009103000891030008910300089103000810
:100080009103000891030008910300089103000800
:1000900091030008910300089103000891030008F0
:1000A00091030008910300089103000891030008E0
:1000B00091030008910300089103000891030008D0
:1000C00091030008910300089103000891030008C0
:1000D00091030008910300089103000891030008B0
:1000E00091030008910300089103000891030008A0
:1000F0009103000891030008910300089103000890
:10010000910300089103000891030008910300087F
:10011000910300089103000891030008910300086F
:10012000910300089103000891030008910300085F
:10013000910300089103000891030008910300084F
:10014000910300089103000891030008910300083F
:10015000910300089103000891030008910300082F
:10016000910300089103000891030008910300081F
:1001700091030008910300089103000800000000AB
:1001800091030008910300089103000891030008FF
:1001900091030008910300089103000891030008EF
:0C01A0009103000891030008910300087F
:1001AC0010B5054C237833B9044B13B10448AFF3A5
:1001BC0000800123237010BD00000020000000000F
:1001CC00DC03000808B5034B1BB103490348AFF32C
:1001DC00008008BD0000000004000020DC030008C3
:1001EC0008B500F071F82FE0324B01221A70002391
:1001FC00314A137031498A6942F080028A6100E009
:10020C0001332F4A9342FBDD2C4A936943F40003DC
:10021C0093611EE00023274A1370274A01211170B5
:10022C0026498A6942F001028A6100E00133244ABE
:10023C009342FBDD214A936943F4803393610DE0D3
:10024C001D4B1B78012B17D01E4B1B6913F0400F55
:10025C00CAD11C4B1B6913F0800FDBD1154B1B78DB
:10026C00012BEDD1174B1A6842F080721A609A6913
:10027C0042F480529A61E3E7124B9A6942F0805241
:10028C009A611A6842F040721A601B6913F4805F1D
:10029C00DAD00A4A936943F480439361002300E067
:1002AC000133074A9342FBDD044A936943F08043D0
:1002BC009361C9E71D0000201C00002000040240CF
:1002CC001FA1070000080240164A136B43F00E03EF
:1002DC001363154B1A6842F001021A601A6842F453
:1002EC0080421A601A6842F080521A605A6822F4EE
:1002FC00C14222F001025A600C4A516821F480512B
:10030C00516098680A4901439960916841F0807185
:10031C009160D86807490140D960D36823F0807395
:10032C00D3607047003802400004024000080240CD
:10033C0001400010FEBFFFEFDFF830D00C480D4934
:10034C000D4A002302E0D458C4500433C4188C4224
:10035C00F9D30A4A0A4C002301E013600432A2428A
:10036C00FBD300F011F8FFF73BFF704700000320B0
:10037C000000002000000020FC030008000000200A
:10038C0020000020FEE7000070B50D4D0D4C641BE5
:10039C00A4100026A64209D10B4D0C4C00F018F805
:1003AC00641BA4100026A64205D170BD55F8043B71
:1003BC0098470136EEE755F8043B98470136F2E7CB
:1003CC00F4030008F4030008F4030008F803000821
:1003DC00F8B500BFF8BC08BC9E467047F8B500BF26
:0803EC00F8BC08BC9E467047F6
:0403F400D10100082B
:0403F800AD0100084B
:0400000508000345A7
:00000001FF
