:020000040800F2
:1000000000000320E10300082D0400082D0400086F
:100010002D0400082D0400082D0400080000000035
:100020000000000000000000000000002D04000897
:100030002D040008000000002D0400089D030008A6
:100040002D0400082D0400082D0400082D040008CC
:100050002D0400082D0400082D0400082D040008BC
:100060002D0400082D040008A10300082D04000839
:100070002D0400082D0400082D0400082D0400089C
:100080002D0400082D0400082D0400082D0400088C
:100090002D0400082D0400082D040008B9030008F1
:1000A0002D0400082D0400082D0400082D0400086C
:1000B0002D0400082D0400082D0400082D0400085C
:1000C0002D0400082D0400082D0400082D0400084C
:1000D0002D0400082D0400082D0400082D0400083C
:1000E0002D0400082D0400082D0400082D0400082C
:1000F0002D0400082D0400082D0400082D0400081C
:100100002D0400082D0400082D0400082D0400080B
:100110002D0400082D0400082D0400082D040008FB
:100120002D0400082D0400082D0400082D040008EB
:100130002D0400082D0400082D0400082D040008DB
:100140002D0400082D0400082D0400082D040008CB
:100150002D0400082D0400082D0400082D040008BB
:100160002D0400082D0400082D0400082D040008AB
:100170002D0400082D0400082D04000800000000D4
:100180002D0400082D0400082D0400082D0400088B
:100190002D0400082D0400082D0400082D0400087B
:0C01A0002D0400082D0400082D040008A8
:1001AC0010B5054C237833B9044B13B10448AFF3A5
:1001BC0000800123237010BD00000020000000000F
:1001CC007804000808B5034B1BB103490348AFF38F
:1001DC00008008BD00000000040000207804000826
:1001EC0008B500F06DF82FE0304B01221A70002397
:1001FC002F4A13702F498A6942F080028A6100E00D
:10020C0001332D4A9342FBDD2A4A936943F40003E0
:10021C0093611EE00023254A1370254A01211170B9
:10022C0024498A6942F001028A6100E00133224AC2
:10023C009342FBDD1F4A936943F4803393610DE0D5
:10024C001B4B1B78012B17D01C4B1B6913F0400F59
:10025C00CAD11A4B1B6913F0800FDBD1134B1B78DF
:10026C00012BEDD1154B1A6842F080721A609A6915
:10027C0042F480529A61E3E7104B9A6942F0805243
:10028C009A611B6913F4805FDED00A4A936943F4C8
:10029C0080439361002300E00133074A9342FBDD66
:1002AC00044A936943F080439361CDE71D0000201D
:1002BC001C000020000402401FA10700000802409F
:1002CC002D4BD3F8002842F48052C3F80028D3F801
:1002DC00082842F48062C3F80828284A136B43F0BC
:1002EC000E031363264B1A6842F001021A601A6857
:1002FC0042F480421A601A6842F080521A601A68FE
:10030C0042F480621A601A6842F080621A601A68BD
:10031C0042F080521A601A6842F080421A60194A00
:10032C00116841F480511160116841F480411160F1
:10033C00116841F480511160116841F480411160E1
:10034C00596821F4404121F09101596098680E4997
:10035C0001439960D8680D490140D960536823F076
:10036C00C0035360936843F4A0439360D36823F4B1
:10037C00A043D360704700BF000002400038024029
:10038C0000040240000C024001410050FEBFFFAFD0
:10039C0070470000044B5B6913F0100F02D0024B46
:1003AC0010225A61704700BF003C0140084B5B694A
:1003BC0013F0200F02D0064B20225A61044B5B69CC
:1003CC0013F0400F02D0024B40225A61704700BF1D
:1003DC00003C0140DFF830D00C480D490D4A002399
:1003EC0002E0D458C4500433C4188C42F9D30A4ADE
:1003FC000A4C002301E013600432A242FBD300F04C
:10040C0011F8FFF7EDFE70470000032000000020FC
:10041C0000000020980400080000002020000020AC
:10042C00FEE7000070B50D4D0D4C641BA4100026AA
:10043C00A64209D10B4D0C4C00F018F8641BA4100B
:10044C000026A64205D170BD55F8043B98470136ED
:10045C00EEE755F8043B98470136F2E790040008A4
:10046C00900400089004000894040008F8B500BF3C
:10047C00F8BC08BC9E467047F8B500BFF8BC08BC79
:04048C009E467047D1
:04049000D10100088E
:04049400AD010008AE
:04000005080003E10B
:00000001FF
